:020000040800F2
:1000000000800120B920000871200008732000083A
:100010007520000877200008792000080000000003
:100020000000000000000000000000007B2000082D
:100030007D200008000000007F20000881200008CB
:1000400009210008092100080921000809210008E8
:1000500009210008092100080921000809210008D8
:1000600009210008092100080921000809210008C8
:1000700009210008092100080921000809210008B8
:1000800009210008092100080921000800000000DA
:1000900000000000000000000000000089200008AF
:1000A0000921000809210008092100080921000888
:1000B00095200008092100080921000809210008ED
:1000C0000921000809210008092100080921000868
:1000D000092100080921000809210008000000008A
:1000E000092100080921000809210008000000007A
:1000F00000000000000000000000000009210008CE
:100100000000000009210008092100080921000859
:1001100000000000000000000000000000000000DF
:100120000921000809210008092100080921000807
:10013000092100080000000000000000000000008D
:10014000000000000000000000000000092100087D
:1001500009210008092100080921000809210008D7
:10016000092100080921000800000000000000002B
:10017000000000000000000000000000000000007F
:10018000000000000921000800000000000000003D
:040190000921000839
:1001980081F0004102E000BF83F0004330B54FEA30
:1001A80041044FEA430594EA050F08BF90EA020F9D
:1001B8001FBF54EA000C55EA020C7FEA645C7FEA30
:1001C800655C00F0E2804FEA5454D4EB5555B8BF53
:1001D8006D420CDD2C4480EA020281EA030382EAC4
:1001E800000083EA010180EA020281EA0303362D56
:1001F80088BF30BD11F0004F4FEA01314FF4801C29
:100208004CEA113102D0404261EB410113F0004F3A
:100218004FEA03334CEA133302D0524263EB4303F1
:1002280094EA050F00F0A780A4F10104D5F1200E8F
:100238000DDB02FA0EFC22FA05F2801841F10001EA
:1002480003FA0EF2801843FA05F359410EE0A5F1BE
:1002580020050EF1200E012A03FA0EFC28BF4CF0EF
:10026800020C43FA05F3C01851EBE37101F00045A5
:1002780007D54FF0000EDCF1000C7EEB00006EEBB2
:100288000101B1F5801F1BD3B1F5001F0CD349083C
:100298005FEA30004FEA3C0C04F101044FEA445293
:1002A80012F5800F80F09A80BCF1004F08BF5FEA1A
:1002B800500C50F1000041EB045141EA050130BDFA
:1002C8005FEA4C0C404141EB0101013C28BFB1F50C
:1002D800801FE9D291F0000F04BF01460020B1FA57
:1002E80081F308BF2033A3F10B03B3F120020CDA2A
:1002F8000C3208DD02F1140CC2F10C0201FA0CF008
:1003080021FA02F10CE002F11402D8BFC2F1200C6C
:1003180001FA02F120FA0CFCDCBF41EA0C01904022
:10032800E41AA2BF01EB0451294330BD6FEA04046B
:100338001F3C1CDA0C340EDC04F11404C4F1200256
:1003480020FA04F001FA02F340EA030021FA04F368
:1003580045EA030130BDC4F10C04C4F1200220FABF
:1003680002F001FA04F340EA0300294630BD21FAFD
:1003780004F0294630BD94F0000F83F4801306BFC3
:1003880081F480110134013D4EE77FEA645C18BFB7
:100398007FEA655C29D094EA050F08BF90EA020F4E
:1003A80005D054EA000C04BF1946104630BD91EA46
:1003B800030F1EBF0021002030BD5FEA545C05D149
:1003C8004000494128BF41F0004130BD14F5800488
:1003D8003CBF01F5801130BD01F0004545F0FE41FC
:1003E80041F470014FF0000030BD7FEA645C1ABF31
:1003F800194610467FEA655C1CBF0B46024650EA68
:10040800013406BF52EA033591EA030F41F4002193
:1004180030BD00BF90F0000F04BF0021704730B519
:100428004FF4806404F132044FF000054FF00001EE
:1004380050E700BF90F0000F04BF0021704730B5AF
:100448004FF4806404F1320410F0004548BF404284
:100458004FF000013EE700BF42004FEAE2014FEAD9
:1004680031014FEA02701FBF12F07F4393F07F4FB4
:1004780081F06051704732F07F4208BF704793F0B7
:100488007F4F04BF41F40021704730B54FF46074CA
:1004980001F0004521F000411CE700BF50EA0102CD
:1004A80008BF704730B54FF000050AE050EA010276
:1004B80008BF704730B511F0004502D5404261EBE6
:1004C80041014FF4806404F132045FEA915C3FF427
:1004D800D8AE4FF003025FEADC0C18BF03325FEAC4
:1004E800DC0C18BF033202EBDC02C2F1200300FA75
:1004F80003FC20FA02F001FA03FE40EA0E0021FA9A
:1005080002F11444BDE600BF70B54FF0FF0C4CF487
:10051800E06C1CEA11541DBF1CEA135594EA0C0F39
:1005280095EA0C0F00F0DEF82C4481EA030621EA74
:100538004C5123EA4C5350EA013518BF52EA0335AF
:1005480041F4801143F4801338D0A0FB02CE4FF061
:100558000005E1FB02E506F00042E0FB03E54FF091
:100568000006E1FB03569CF0000F18BF4EF0010E89
:10057800A4F1FF04B6F5007F64F5407404D25FEA85
:100588004E0E6D4146EB060642EAC62141EA555138
:100598004FEAC52040EA5E504FEACE2EB4F1FD0C7A
:1005A80088BFBCF5E06F1ED8BEF1004F08BF5FEAF8
:1005B800500E50F1000041EB045170BD06F00046AA
:1005C80046EA010140EA020081EA0301B4EB5C0457
:1005D800C2BFD4EB0C0541EA045170BD41F480114F
:1005E8004FF0000E013C00F3AB8014F1360FDEBF74
:1005F800002001F0004170BDC4F10004203C35DA50
:100608000C341BDC04F11404C4F1200500FA05F3D2
:1006180020FA04F001FA05F240EA020001F0004273
:1006280021F0004110EBD37021FA04F642EB0601E9
:100638005EEA430E08BF20EAD37070BDC4F10C0413
:10064800C4F1200500FA04F320FA05F001FA04F2D7
:1006580040EA020001F0004110EBD37041F10001C3
:100668005EEA430E08BF20EAD37070BDC4F12005CE
:1006780000FA05F24EEA020E20FA04F301FA05F236
:1006880043EA020321FA04F001F0004121FA04F2DE
:1006980020EA020000EBD3705EEA430E08BF20EAAE
:1006A800D37070BD94F0000F0FD101F000464000E8
:1006B80041EB010111F4801F08BF013CF7D041EA6A
:1006C800060195F0000F18BF704703F0004652006E
:1006D80043EB030313F4801F08BF013DF7D043EA3F
:1006E8000603704794EA0C0F0CEA135518BF95EAF5
:1006F8000C0F0CD050EA410618BF52EA4306D1D17C
:1007080081EA030101F000414FF0000070BD50EA9A
:10071800410606BF1046194652EA430619D094EA24
:100728000C0F02D150EA013613D195EA0C0F05D10E
:1007380052EA03361CBF104619460AD181EA030162
:1007480001F0004141F0FE4141F470014FF000001A
:1007580070BD41F0FE4141F4780170BD70B54FF0B5
:10076800FF0C4CF4E06C1CEA11541DBF1CEA135535
:1007780094EA0C0F95EA0C0F00F0A7F8A4EB050417
:1007880081EA030E52EA03354FEA013100F088800E
:100798004FEA03334FF0805545EA131343EA1263D7
:1007A8004FEA022245EA111545EA10654FEA00268C
:1007B8000EF000419D4208BF964244F1FD0404F545
:1007C800407402D25B084FEA3202B61A65EB0305A1
:1007D8005B084FEA32024FF480104FF4002CB6EB5E
:1007E800020E75EB030E22BFB61A754640EA0C00DE
:1007F8005B084FEA3202B6EB020E75EB030E22BF1E
:10080800B61A754640EA5C005B084FEA3202B6EB5E
:10081800020E75EB030E22BFB61A754640EA9C001D
:100828005B084FEA3202B6EB020E75EB030E22BFED
:10083800B61A754640EADC0055EA060E18D04FEAAB
:10084800051545EA16754FEA06164FEAC30343EA4B
:1008580052734FEAC2025FEA1C1CC0D111F4801F18
:100868000BD141EA00014FF000004FF0004CB6E711
:1008780011F4801F04BF01430020B4F1FD0C88BFB0
:10088800BCF5E06F3FF6AFAEB5EB030C04BFB6EBBB
:10089800020C5FEA500C50F1000041EB045170BDAE
:1008A8000EF0004E4EEA113114EB5C04C2BFD4EBDB
:1008B8000C0541EA045170BD41F480114FF0000E5F
:1008C800013C90E645EA060E8DE60CEA135594EADB
:1008D8000C0F08BF95EA0C0F3FF43BAF94EA0C0FDE
:1008E8000AD150EA01347FF434AF95EA0C0F7FF453
:1008F80025AF104619462CE795EA0C0F06D152EAA7
:1009080003353FF4FDAE1046194622E750EA41068A
:1009180018BF52EA43067FF4C5AE50EA41047FF49B
:100928000DAF52EA43057FF4EBAE12E74FF0FF3C00
:1009380006E000BF4FF0010C02E000BF4FF0010CD1
:100948004DF804CD4FEA410C7FEA6C5C4FEA430C4A
:1009580018BF7FEA6C5C1BD001B050EA410C0CBF99
:1009680052EA430C91EA030F02BF90EA020F0020FB
:10097800704710F1000F91EA030F58BF994208BF62
:1009880090422CBFD8176FEAE37040F0010070471F
:100998004FEA410C7FEA6C5C02D150EA013C07D176
:1009A8004FEA430C7FEA6C5CD6D152EA033CD3D0C1
:1009B8005DF8040B704700BF8446104662468C46BB
:1009C8001946634600E000BF01B5FFF7B7FF0028EE
:1009D80048BF10F1000F01BD4DF808EDFFF7F4FF17
:1009E8000CBF012000205DF808FB00BF4DF808EDA2
:1009F800FFF7EAFF34BF012000205DF808FB00BFC5
:100A08004DF808EDFFF7E0FF94BF012000205DF8E6
:100A180008FB00BF4DF808EDFFF7CEFF94BF01209B
:100A280000205DF808FB00BF4DF808EDFFF7C4FF94
:100A380034BF012000205DF808FB00BF4FEA4102E7
:100A4800B2F1E04324BFB3F5001CDCF1FE5C0DD924
:100A580001F0004C4FEAC0024CEA5070B2F1004F6E
:100A680040EB830008BF20F00100704711F0804F71
:100A780021D113F13872BCBF01F00040704741F436
:100A880080114FEA5252C2F11802C2F1200C10FA3A
:100A98000CF320FA02F018BF40F001004FEAC1231E
:100AA8004FEAD32303FA0CFC40EA0C0023FA02F3C2
:100AB8004FEA4303CCE77FEA625307D150EA013398
:100AC8001EBF4FF0FE4040F44000704701F0004068
:100AD80040F0FE4040F40000704700BF53B94AB9E7
:100AE800002908BF00281CBF4FF0FF314FF0FF302E
:100AF80000F00CB8ADF1080C6DE904CE01F02EFB46
:100B0800DDF804E0DDE9022304B07047704700BF58
:100B180010B5054C237833B9044B13B10448AFF32F
:100B280000800123237010BD100000200000000089
:100B38002024000808B5034B1BB103490348AFF351
:100B4800008008BD000000001400002020240008D8
:100B580030B58BB000240594069407940894099442
:100B680001942C4B1A6B42F004021A631A6B02F0C0
:100B780004020192019A02941A6B42F080021A63ED
:100B88001A6B02F080020292029A03941A6B42F0E6
:100B980001021A631A6B02F001020392039A049489
:100BA8001A6B42F002021A631B6B03F002030493F0
:100BB800049B194D22462021284600F047FB4FF49C
:100BC800005305934FF404130693079405A913489B
:100BD80000F058FA202305930123069307940894FC
:100BE80005A9284600F04EFA4FF4807305934FF498
:100BF80088130693079405A9284600F043FA22466D
:100C08002146172000F016FA172000F023FA0BB03F
:100C180030BD00BF0038024000000240000802401A
:100C2800B0F5807F00D07047F8B53B4B1B685C6A15
:100C38003A4B1C603A4B1D68012D5BDD394B186837
:100C4800844230DB201AFFF7F5FB06460F46364B89
:100C5800C3E900670022354BFFF780FD02460B46CB
:100C68003349C1E900232AA1D1E90001FFF776FD44
:100C7800FFF7E4FE2F4B1860002200232A49D1E930
:100C88000001FFF7D1FE88B32A4BD3ED007A9FED20
:100C98002A7A67EE877A294BC3ED007A77EEA77A2E
:100CA800C3ED007A29E0D0F1FF33E117E31841EBF7
:100CB800D071581C41F10001FFF7F8FB06460F46BA
:100CC800194BC3E900670022184BFFF747FD02469E
:100CD8000B461749C1E900230DA1D1E90001FFF72F
:100CE8003DFDFFF7ABFE134B1860C5E7134B144AE5
:100CF8001A6002E0114B124A1A60124B1968094A2D
:100D080011601C600135064B1D60F8BDAFF3008013
:100D18000000000080842E41BC0000202801002033
:100D28002C01002020010020100100200000244098
:100D38000801002018010020000070421C0100205A
:100D4800000080BF2401002072B6FEE708B50A48FB
:100D58000A4B03604FF4E133436000238360C360B0
:100D680003610C2242618361C36101F04DF900B94E
:100D780008BDFFF7E9FF00BF2C0000200044004039
:100D880000B587B00023029303930493059300935F
:100D9800019314484FF0804202600722426083604A
:100DA8004FF0FF32C2600361836100F0ADFF90B97C
:100DB8004FF48053029302A90A4800F0DEFF60B99D
:100DC8000023009301936946064801F055F830B9AD
:100DD80007B05DF804FBFFF7B7FFFFF7B5FFFFF7B4
:100DE800B3FF00BFBC00002008B50A480A4B0360E7
:100DF8004FF4E133436000238360C36003610C2236
:100E080042618361C36101F0FFF800B908BDFFF7D3
:100E18009BFF00BF740000200010014000B595B092
:100E28003022002108A801F06CF9002303930493F1
:100E380005930693079301931F4A116C41F0805163
:100E48001164126C02F080520192019A02931B49BC
:100E58000A6822F4404242F400420A600A6802F436
:100E680040420292029A0222089201210B9110211B
:100E78000C910E920F930823109350231193129202
:100E88000723139308A800F08FFA80B90F23039360
:100E980002210491002305934FF480520692079390
:100EA80003A800F0EBFC20B915B05DF804FBFFF7D0
:100EB8004BFFFFF749FF00BF0038024000700040B9
:100EC80008B500F037F8FFF7A9FFFFF741FEFFF775
:100ED8003DFFFFF755FFFFF787FF024800F0D4FDFD
:100EE800FEE700BFBC00002010B504460E4B1A7880
:100EF8004FF47A73B3FBF2F30C4A1068B0FBF3F0CB
:100F080000F0ACF868B90F2C01D901200AE00022E2
:100F180021464FF0FF3000F08DF8054B1C60002093
:100F280000E0012010BD00BF0000002008000020E4
:100F38000400002008B50B4B1A6842F400721A60CE
:100F48001A6842F480621A601A6842F480721A6061
:100F5800032000F05DF80020FFF7C6FF00F08AF9D3
:100F6800002008BD003C0240034A1168034B1B786F
:100F78000B441360704700BF3001002000000020C0
:100F8800014B1868704700BF30010020002807DBBC
:100F980000F01F02400901239340024A42F8203022
:100FA800704700BF00E100E0002808DB0901C9B272
:100FB80000F1604000F5614080F80013704700F0D0
:100FC8000F000901C9B2014B1954704714ED00E034
:100FD80000B500F00700C0F1070CBCF1040F28BFF2
:100FE8004FF0040C031D062B0FD9C31E4FF0FF3E14
:100FF8000EFA0CF021EA000199400EFA03FE22EAEB
:101008000E0241EA02005DF804FB0023EEE700004F
:10101800074AD36823F4E0631B041B0C000200F4A6
:10102800E060034343F0BF6343F40033D360704789
:1010380000ED00E010B50446054BD868C0F3022067
:10104800FFF7C6FF01462046FFF7AEFF10BD00BF01
:1010580000ED00E008B5FFF799FF08BD0138B0F1D1
:10106800807F0BD24FF0E0235861054AF02182F8C7
:1010780023100020986107221A61704701207047E9
:1010880000ED00E000230F2B00F2D78070B582B08E
:1010980065E085684FEA430E032404FA0EF425EA56
:1010A8000405CC6804FA0EF42C438460446824EAEE
:1010B80002044A68C2F300129A40224342605CE08C
:1010C800DC08083450F8242003F00705AD004FF081
:1010D8000F0E0EFA05FE22EA0E0E0A69AA4042EA2F
:1010E8000E0240F824205CE0042200E0002202FA0C
:1010F8000EF22A430234514D45F82420504A946890
:101108006FEA0C0224EA0C054E6816F4801F01D021
:101118004CEA04054A4CA560E46802EA04054E68F6
:1011280016F4001F01D04CEA0405454CE5606468DC
:1011380002EA04054E6816F4003F01D04CEA0405A3
:101148003F4C6560246822404D6815F4803F01D00B
:101158004CEA04023A4C226001330F2B6BD801226F
:101168009A400C6804EA020C32EA0404F4D14C6890
:1011780004F00304013C012C8BD94A6802F00302F5
:10118800032A09D0C4685D000322AA4024EA0204A5
:101198008A68AA402243C2604A6802F00302022A0F
:1011A8008ED004684FEA430E032202FA0EF224EAB4
:1011B80002044A6802F0030202FA0EF222430260B5
:1011C8004A6812F4403FC7D0002201921D4A546C6D
:1011D80044F480445464526C02F480420192019AAF
:1011E8009C08A51C154A52F8255003F0030E4FEA37
:1011F8008E0E0F2202FA0EF225EA0205124A9042DA
:101208003FF474AF02F5806290420ED002F580621E
:1012180090420CD002F5806290420AD002F58062BA
:1012280090423FF461AF072261E701225FE70222A3
:101238005DE703225BE702B070BD704700380140EC
:10124800003C014000380240000002400AB18161C0
:10125800704709048161704708B5054B5B69034213
:1012680000D108BD024B5861FFF7DAFCF9E700BF6F
:10127800003C014082B0002100910B4B5A6C42F4B3
:1012880080425A645A6C02F480420092009A01919A
:101298001A6C42F080521A641B6C03F0805301935D
:1012A800019B02B0704700BF003802400368B3F1E9
:1012B800804F00D0704700B583B00021019103F53D
:1012C8000E331A6C42F001021A641B6C03F001031E
:1012D8000193019B0A461C20FFF7ACFE1C20FFF778
:1012E800B9FE03B05DF804FB00B58BB0002305938D
:1012F80006930793089309930368274A934205D0F6
:10130800264A934226D00BB05DF804FB00210191D8
:10131800234B5A6C42F010025A645A6C02F01002C5
:101328000192019A02911A6B42F001021A631B6B37
:1013380003F001030293029B4FF4C0630593022359
:101348000693032308930723099305A91548FFF774
:1013580099FED8E700210391114B1A6C42F4003230
:101368001A641A6C02F400320392039A04911A6BFD
:1013780042F001021A631B6B03F001030493049B00
:101388000C230593022306930723099305A905480F
:10139800FFF778FEB7E700BF0010014000440040A7
:1013A8000038024000000240002800F0E08170B5DB
:1013B80082B00446036813F0010F3BD09F4B9B6833
:1013C80003F00C03042B2CD09C4B9B6803F00C03FC
:1013D800082B21D06368B3F5803F4FD0B3F5A02F19
:1013E80052D0964B1A6822F480321A601A6822F496
:1013F80080221A606368002B50D0FFF7C1FD0546B4
:101408008E4B1B6813F4003F14D1FFF7B9FD401B46
:101418006428F5D90320B1E1884B5B6813F4800F89
:10142800D8D0864B1B6813F4003F03D06368002BA9
:1014380000F09F81236813F0020F54D07F4B9B6804
:1014480013F00C0F3ED07D4B9B6803F00C03082B68
:1014580033D0E368002B68D0794B01221A60FFF77C
:101468008FFD0546754B1B6813F0020F54D1FFF72B
:1014780087FD401B0228F5D903207FE16F4A1368D6
:1014880043F480331360B5E76C4B1A6842F480224A
:101498001A601A6842F480321A60ABE7FFF770FDF1
:1014A8000546664B1B6813F4003FC3D0FFF768FD81
:1014B800401B6428F5D9032060E1604B5B6813F496
:1014C800800FC6D15D4B1B6813F0020F03D0E36891
:1014D800012B40F05081594A136823F0F803216921
:1014E80043EAC1031360236813F0080F42D063690D
:1014F8006BB3534B0122C3F8802EFFF741FD05461D
:101508004E4B5B6F13F0020F34D1FFF739FD401BD0
:101518000228F5D9032031E1484A136823F0F8037B
:10152800216943EAC1031360DDE7454B00221A60D5
:10153800FFF726FD0546414B1B6813F0020FD2D07A
:10154800FFF71EFD401B0228F5D9032016E13C4B8E
:101558000022C3F8802EFFF713FD0546374B5B6F5B
:1015680013F0020F06D0FFF70BFD401B0228F5D938
:10157800032003E1236813F0040F77D02F4B1B6C73
:1015880013F0805F33D1002301932C4B1A6C42F087
:1015980080521A641B6C03F080530193019B012550
:1015A800284B1B6813F4807F23D0A368012B34D009
:1015B800052B38D0214B1A6F22F001021A671A6FD7
:1015C80022F004021A67A368002B3DD0FFF7D8FC6D
:1015D80006461A4B1B6F13F0020F46D1FFF7D0FCDB
:1015E800801B41F288339842F3D90320C6E00025D6
:1015F800D6E7144A136843F480731360FFF7C0FCFE
:101608000646104B1B6813F4807FCED1FFF7B8FC59
:10161800801B0228F5D90320B0E0084A136F43F075
:1016280001031367CFE7054B1A6F42F004021A67EC
:101638001A6F42F001021A67C5E700BF003802407E
:101648000000474200700040FFF79AFC0646524BE4
:101658001B6F13F0020F08D0FFF792FC801B41F2BA
:1016680088339842F3D9032088E0EDB9A369002BA9
:1016780000F08380484A926802F00C02082A51D090
:10168800022B17D0454B00221A66FFF779FC044657
:10169800414B1B6813F0007F42D0FFF771FC001B21
:1016A8000228F5D9032069E03B4A136C23F08053E4
:1016B8001364DBE7394B00221A66FFF761FC054625
:1016C800354B1B6813F0007F06D0FFF759FC401B11
:1016D8000228F5D9032051E0E369226A1343626ABC
:1016E80043EA8213A26A5208013A43EA0243E26AD1
:1016F80043EA0263284A5360284B01221A66FFF71F
:101708003FFC0446244B1B6813F0007F06D1FFF70B
:1017180037FC001B0228F5D903202FE000202DE01C
:1017280000202BE0012B2BD01B4B5B6803F48001BE
:10173800E269914226D103F03F02216A8A4223D10D
:10174800616A47F6C0721A40B2EB811F1ED103F4DA
:101758004031A26A5208013AB1EB024F18D103F0A6
:101768007063E26AB3EB026F14D1002006E0012037
:101778007047012002E0012000E0002002B070BDA7
:101788000120FBE70120F9E70120F7E70120F5E751
:101798000120F3E70120F1E700380240000047424A
:1017A80008B5334B9B6803F00C03042B5BD0082B64
:1017B8005BD12F4B5A6802F03F025B6813F4800F2D
:1017C8002CD02B4B5868C0F388104FEA401CBCEB58
:1017D800000C6EEB0E0E4FEA8E1343EA9C634FEA41
:1017E8008C11B1EB0C0163EB0E03DB0043EA517380
:1017F800C90011EB000C43F10003590200234FEA22
:101808004C2041EADC51FFF769F9194B5B68C3F3D7
:10181800014301335B00B0FBF3F008BD144B58687B
:10182800C0F388104FEA401CBCEB000C6EEB0E0EA8
:101838004FEA8E1343EA9C634FEA8C11B1EB0C011B
:1018480063EB0E03DB0043EA5173C90011EB000C94
:1018580043F10003990200234FEA8C2041EA9C518E
:10186800FFF73CF9D1E70348D7E70348D5E700BFBE
:101878000038024000127A000024F400002800F02A
:101888009B8070B50D4604464F4B1B6803F0070359
:101898008B4208D2CBB24C4A1370136803F007038B
:1018A8008B4240F08B80236813F0020F17D013F09F
:1018B800040F04D0454A936843F4E05393602368C7
:1018C80013F0080F04D0414A936843F460439360CF
:1018D8003E4A936823F0F003A1680B4393602368A2
:1018E80013F0010F32D06368012B21D09A1E012A10
:1018F80025D9364A126812F0020F61D033498A6836
:1019080022F0030213438B60FFF73AFB06462F4B86
:101918009B6803F00C036268B3EB820F16D0FFF7E5
:101928002FFB801B41F288339842F0D9032042E014
:10193800264A126812F4003FE0D101203BE0234A16
:10194800126812F0007FD9D1012034E01E4B1B68C9
:1019580003F00703AB4207D9EAB21B4B1A701B68A6
:1019680003F00703AB422DD1236813F0040F06D010
:10197800164A936823F4E053E1680B4393602368A5
:1019880013F0080F07D0114A936823F460432169C4
:1019980043EAC1039360FFF703FF0C4B9B68C3F353
:1019A80003130B4AD35CD8400A4B18600A4B1868DB
:1019B800FFF79AFA002070BD012070470120FAE76E
:1019C8000120F8E70120F6E7003C02400038024019
:1019D800402400080800002004000020014B18687B
:1019E800704700BF0800002008B5FFF7F7FF044B59
:1019F8009B68C3F38223034AD35CD84008BD00BF69
:101A0800003802403824000808B5FFF7E7FF044B08
:101A18009B68C3F34233034AD35CD84008BD00BF78
:101A2800003802403824000810B4036A046A24F01D
:101A380001040462846924F0F00C4CEA021223F0D9
:101A48000A030B43826103625DF8044B704710B4CC
:101A5800036A046A24F010040462846924F4704C54
:101A68004CEA023223F0A00343EA011382610362C5
:101A78005DF8044B7047836823F070030B4343F011
:101A8800070383607047000090F83D30DBB2012BFC
:101A98002AD1022380F83D300368154A934218D0B2
:101AA800B3F1804F15D0A2F57C42934211D002F5D4
:101AB800806293420DD002F58062934209D002F50C
:101AC8009A32934205D01A6842F001021A60002047
:101AD80070479A6802F00702062A07D01A6842F08F
:101AE80001021A60002070470120704700207047EB
:101AF800000001407047704770477047704770B5E5
:101B080004460368DE681D6915F0020F10D016F050
:101B1800020F0DD06FF002021A61012303770368E8
:101B28009B6913F0030F5ED0FFF7E6FF00232377CE
:101B380015F0040F12D016F0040F0FD023686FF0C1
:101B480004021A610223237723689B6913F4407FF8
:101B58004FD02046FFF7D0FF0023237715F0080F5A
:101B680012D016F0080F0FD023686FF008021A6120
:101B7800042323772368DB6913F0030F40D0204642
:101B8800FFF7BAFF0023237715F0100F12D016F0D5
:101B9800100F0FD023686FF010021A610823237703
:101BA8002368DB6913F4407F31D02046FFF7A4FF98
:101BB8000023237715F0010F02D016F0010F2DD165
:101BC80015F0800F02D016F0800F2FD115F0400FBE
:101BD80002D016F0400F31D115F0200F02D016F0C8
:101BE800200F33D170BDFFF786FF2046FFF785FF32
:101BF8009CE72046FFF77FFF2046FFF77EFFABE715
:101C08002046FFF778FF2046FFF777FFBAE7204620
:101C1800FFF771FF2046FFF770FFC9E723686FF0F1
:101C280001021A612046FFF765FFC9E723686FF0D4
:101C380080021A61204600F05EF9C7E723686FF05A
:101C480040021A612046FFF759FFC5E723686FF085
:101C580020021A61204600F04DF9C3E70368294ABB
:101C680090420ED0B0F1804F0BD0A2F57C4290424A
:101C780007D002F58062904203D002F5806290425C
:101C880003D123F070034A6813431E4A90421AD0C6
:101C9800B0F1804F17D0A2F57C42904213D002F5E4
:101CA800806290420FD002F5806290420BD002F51C
:101CB8009A32904207D002F58062904203D002F532
:101CC8008062904203D123F44073CA68134323F01F
:101CD80080034A69134303608B68C3620B6883629D
:101CE800084B98420AD001234361036913F0010F9E
:101CF80003D0036923F00103036170470B69036391
:101D0800F1E700BF0000014040B310B5044690F869
:101D18003D30F3B1022384F83D30214651F8040BDD
:101D2800FFF79CFF012384F8463084F83E3084F89E
:101D38003F3084F8403084F8413084F8423084F8E9
:101D4800433084F8443084F8453084F83D3000202E
:101D580010BD80F83C30FFF7A9FADBE70120704797
:101D680010B4846824F47F4C42EA03220A4342EA0E
:101D78000C0282605DF8044B704790F83C30012BF0
:101D880078D010B50446012380F83C30022380F84F
:101D98003D300268936823F47F4323F07703936010
:101DA8000B68602B4CD023D8402B54D011D8202B53
:101DB80003D00AD80BB1102B05D119462068FFF7BC
:101DC8005AFE002028E0012026E0302BF5D0012023
:101DD80022E0502B0AD1CA6849680068FFF724FE40
:101DE80050212068FFF747FE002015E0012013E08E
:101DF800B3F5805F3AD0B3F5005F14D0702B37D1BC
:101E0800CB684A6889680068FFF7AAFF2268936868
:101E180043F0770393600020012384F83D300023CA
:101E280084F83C3010BDCB684A6889680068FFF7C1
:101E380097FF2268936843F4804393600020EBE7A0
:101E4800CA6849680068FFF702FE60212068FFF74A
:101E580012FE0020E0E7CA6849680068FFF7E4FD61
:101E680040212068FFF707FE0020D5E70020D3E7D0
:101E78000120D1E70220704790F83C20012A35D094
:101E880010B40346012280F83C20022280F83D204D
:101E980002685068946820F0700C086840EA0C00EA
:101EA80050601A681248824212D0B2F1804F0FD0A7
:101EB800A0F57C4082420BD000F58060824207D0BA
:101EC80000F58060824203D000F59A30824204D146
:101ED80024F08004496821439160012283F83D2061
:101EE800002083F83C005DF8044B704702207047DF
:101EF800000001407047704710B504460268136936
:101F080023F44053C1680B431361836802691A4381
:101F180043691A43C3691A430168CB6823F416431B
:101F280023F00C031343CB600268536923F4407316
:101F380081690B4353610368314A934206D002F525
:101F48008062934202D0FFF74FFD01E0FFF75CFD8E
:101F5800E369B3F5004F29D00021031849411B1844
:101F680041F10001C90041EA5371DB0018186368A8
:101F78004FEA83024FEA937341F10001FEF7AEFD89
:101F8800204AA2FB00314909642303FB11031B010A
:101F98003233A2FB03235B0903F0F00202EB0112C8
:101FA80003F00F03216813448B6010BD002302184F
:101FB80043EB0301121841F10001C90041EA5271D3
:101FC800D200101841F10001626892185B41FEF7D7
:101FD80085FD0C4AA2FB00314909642303FB110368
:101FE800DB003233A2FB03235B095A0002F4F872C8
:101FF80002EB011203F00703216813448B60D4E756
:10200800001001401F85EB5160B310B5044690F8ED
:10201800413013B3242384F841302268D36823F471
:102028000053D3602046FFF767FF2268136923F443
:10203800904313612268536923F02A03536122688D
:10204800D36843F40053D36000206064202384F8ED
:10205800413084F84230606310BD80F84030FFF7AB
:1020680043F9D7E701207047FEE7FEE7FEE7FEE702
:10207800FEE770477047704708B5FEF775FF08BD63
:1020880008B54FF48070FFF7E7F808BD08B50248B7
:10209800FFF735FD08BD00BFBC000020034AD2F899
:1020A800883043F47003C2F88830704700ED00E0D0
:1020B800DFF834D0FFF7F2FF0C480D490D4A002332
:1020C80002E0D458C4500433C4188C42F9D30A4AE5
:1020D8000A4C002301E013600432A242FBD300F053
:1020E80019F8FEF7EDFE704700800120000000207F
:1020F8000C0000206024000810000020340100209B
:10210800FEE702440346934200D1704703F8011BDF
:10211800F9E7000070B50D4D0D4C641BA4100026A6
:10212800A64209D10B4D0C4C00F076F9641BA410A3
:102138000026A64205D170BD55F8043B98470136E4
:10214800EEE755F8043B98470136F2E758240008B3
:1021580058240008582400085C2400082DE9F0479A
:10216800089D0E4604460F46002B4AD194468C45DE
:10217800B2FA82F260D942B1C2F12003974020FA44
:1021880003F30CFA02FC1F4394404FEA1C4E1FFA5B
:102198008CF6B7FBFEF1230C0EFB117743EA0743DD
:1021A80001FB06F098420AD91CEB030301F1FF3743
:1021B80080F01581984240F21281023963441B1A5B
:1021C800A4B2B3FBFEF00EFB103344EA034400FB59
:1021D80006F6A6420AD91CEB040400F1FF3380F08E
:1021E8000081A64240F2FD806444023840EA014082
:1021F800A41B00211DB1D4400023C5E90043BDE85C
:10220800F0878B4205D90DB1C5E9000100210846C8
:10221800F5E7B3FA83F1002946D1B34202D38242EB
:1022280000F2F580841A66EB030201201746002DA0
:10223800E5D0C5E90047E2E7002A40F09380A1EB2A
:102248000C034FEA1C471FFA8CFE0121B3FBF7F67B
:1022580007FB1630230C43EA00430EFB06F09842B6
:1022680008D91CEB030306F1FF3802D2984200F2AA
:10227800D08046461B1AA4B2B3FBF7F007FB103315
:1022880044EA03440EFB00FEA64508D91CEB0404EF
:1022980000F1FF3302D2A64500F2B6801846A4EB3F
:1022A8000E0440EA0640A5E7C1F120078B4022FA58
:1022B80007FC4CEA030C06FA01FE20FA07F426FA9A
:1022C80007F344EA0E0400FA01F84FEA1C404FEA0B
:1022D8001449B3FBF0FE1FFA8CF600FB1E3349EAE3
:1022E80003430EFB06F9994502FA01F20BD91CEBE0
:1022F80003030EF1FF3A80F08580994540F2828011
:10230800AEF1020E6344A3EB0909A4B2B9FBF0F3E2
:1023180000FB139944EA094403FB06F6A64208D9D0
:102328001CEB040403F1FF3068D2A64266D9023BD5
:10233800644443EA0E40A41BA0FB02E6B442734681
:10234800B14652D34FD05DB1B8EB030264EB090438
:1023580004FA07F722FA01F31F43CC40C5E90074D9
:1023680000214CE7C2F1200120FA01F30CFA02FC2B
:1023780026FA01F1964033434FEA1C471FFA8CFEB8
:10238800B1FBF7F007FB1016190C41EA064100FBF8
:102398000EF68E4204FA02F408D91CEB010100F192
:1023A800FF382DD28E422BD902386144891B9BB24B
:1023B800B1FBF7F607FB161143EA014306FB0EF1E2
:1023C800994208D91CEB030306F1FF3814D299424D
:1023D80012D9023E63445B1A46EA004136E73946A1
:1023E800EDE6184602E7F045ADD2BEEB020366EB18
:1023F8000C060138B146A6E74646ECE7034698E7DF
:102408004046D3E7D6467EE76444023847E70846A5
:102418000DE7023E63442DE7F8B500BFF8BC08BCE1
:102428009E467047F8B500BFF8BC08BC9E4670478A
:10243800000000000102030400000000000000008A
:08244800010203040607080964
:0824500014FDFF7F01000000F4
:042458003D0B000830
:04245C00190B000850
:0C24600001000000100000000024F40047
:04000005080020B916
:00000001FF
